{
  "contractName": "Utility",
  "abi": [
    {
      "inputs": [
        {
          "internalType": "address",
          "name": "user",
          "type": "address"
        },
        {
          "internalType": "address[]",
          "name": "tokens",
          "type": "address[]"
        }
      ],
      "name": "balances",
      "outputs": [
        {
          "internalType": "address[]",
          "name": "",
          "type": "address[]"
        },
        {
          "internalType": "uint256[]",
          "name": "",
          "type": "uint256[]"
        }
      ],
      "stateMutability": "view",
      "type": "function",
      "constant": true
    }
  ],
  "bytecode": "0x608060405234801561001057600080fd5b506106d6806100206000396000f3fe608060405234801561001057600080fd5b506004361061002b5760003560e01c8063d3e5ca8714610030575b600080fd5b61004a6004803603810190610045919061035e565b610061565b604051610058929190610540565b60405180910390f35b6060806000835167ffffffffffffffff8111156100815761008061021b565b5b6040519080825280602002602001820160405280156100af5781602001602082028036833780820191505090505b50905060005b8451811015610184578481815181106100d1576100d0610577565b5b602002602001015173ffffffffffffffffffffffffffffffffffffffff166370a08231876040518263ffffffff1660e01b815260040161011191906105b5565b602060405180830381865afa15801561012e573d6000803e3d6000fd5b505050506040513d601f19601f8201168201806040525081019061015291906105fc565b82828151811061016557610164610577565b5b602002602001018181525050808061017c90610658565b9150506100b5565b50838192509250509250929050565b6000604051905090565b600080fd5b600080fd5b600073ffffffffffffffffffffffffffffffffffffffff82169050919050565b60006101d2826101a7565b9050919050565b6101e2816101c7565b81146101ed57600080fd5b50565b6000813590506101ff816101d9565b92915050565b600080fd5b6000601f19601f8301169050919050565b7f4e487b7100000000000000000000000000000000000000000000000000000000600052604160045260246000fd5b6102538261020a565b810181811067ffffffffffffffff821117156102725761027161021b565b5b80604052505050565b6000610285610193565b9050610291828261024a565b919050565b600067ffffffffffffffff8211156102b1576102b061021b565b5b602082029050602081019050919050565b600080fd5b60006102da6102d584610296565b61027b565b905080838252602082019050602084028301858111156102fd576102fc6102c2565b5b835b81811015610326578061031288826101f0565b8452602084019350506020810190506102ff565b5050509392505050565b600082601f83011261034557610344610205565b5b81356103558482602086016102c7565b91505092915050565b600080604083850312156103755761037461019d565b5b6000610383858286016101f0565b925050602083013567ffffffffffffffff8111156103a4576103a36101a2565b5b6103b085828601610330565b9150509250929050565b600081519050919050565b600082825260208201905092915050565b6000819050602082019050919050565b6103ef816101c7565b82525050565b600061040183836103e6565b60208301905092915050565b6000602082019050919050565b6000610425826103ba565b61042f81856103c5565b935061043a836103d6565b8060005b8381101561046b57815161045288826103f5565b975061045d8361040d565b92505060018101905061043e565b5085935050505092915050565b600081519050919050565b600082825260208201905092915050565b6000819050602082019050919050565b6000819050919050565b6104b7816104a4565b82525050565b60006104c983836104ae565b60208301905092915050565b6000602082019050919050565b60006104ed82610478565b6104f78185610483565b935061050283610494565b8060005b8381101561053357815161051a88826104bd565b9750610525836104d5565b925050600181019050610506565b5085935050505092915050565b6000604082019050818103600083015261055a818561041a565b9050818103602083015261056e81846104e2565b90509392505050565b7f4e487b7100000000000000000000000000000000000000000000000000000000600052603260045260246000fd5b6105af816101c7565b82525050565b60006020820190506105ca60008301846105a6565b92915050565b6105d9816104a4565b81146105e457600080fd5b50565b6000815190506105f6816105d0565b92915050565b6000602082840312156106125761061161019d565b5b6000610620848285016105e7565b91505092915050565b7f4e487b7100000000000000000000000000000000000000000000000000000000600052601160045260246000fd5b6000610663826104a4565b91507fffffffffffffffffffffffffffffffffffffffffffffffffffffffffffffffff820361069557610694610629565b5b60018201905091905056fea2646970667358221220ba2eb5fe6ab2ea18f52d4c7b1c761c6f99642fb557caf1281c94df9919185b4d64736f6c634300080d0033",
  "immutableReferences": {},
  "source": "pragma solidity ^0.8.13;\n//just an interface\nabstract contract Token {\n  function balanceOf(address) public virtual view returns (uint);\n}\n\ncontract Utility {\n    function balances(address user, address[] memory tokens) external view returns (address[] memory, uint[] memory) {\n        uint[] memory tokenBalances = new uint[](tokens.length);\n        for(uint i = 0; i < tokens.length; i++) {\n            tokenBalances[i] = Token(tokens[i]).balanceOf(user);\n        }\n        return (tokens, tokenBalances);\n    }\n} \n\n",
  "sourcePath": "/Users/sleepylog/Documents/jsfile/code-challenge/src/problem5/utility/contracts/Utility.sol",
  "compiler": {
    "name": "solc",
    "version": "0.8.13+commit.abaa5c0e.Emscripten.clang"
  },
  "schemaVersion": "3.4.7",
  "updatedAt": "2022-04-20T15:55:29.608Z",
  "networkType": "ethereum",
  "devdoc": {
    "kind": "dev",
    "methods": {},
    "version": 1
  },
  "userdoc": {
    "kind": "user",
    "methods": {},
    "version": 1
  }
}